{"abi":[{"type":"constructor","inputs":[],"stateMutability":"nonpayable"},{"type":"function","name":"admin","inputs":[],"outputs":[{"name":"","type":"address","internalType":"address"}],"stateMutability":"view"},{"type":"function","name":"anchoredRoots","inputs":[{"name":"","type":"bytes32","internalType":"bytes32"}],"outputs":[{"name":"","type":"bool","internalType":"bool"}],"stateMutability":"view"},{"type":"function","name":"isAnchored","inputs":[{"name":"root","type":"bytes32","internalType":"bytes32"}],"outputs":[{"name":"","type":"bool","internalType":"bool"}],"stateMutability":"view"},{"type":"function","name":"registerRoot","inputs":[{"name":"root","type":"bytes32","internalType":"bytes32"}],"outputs":[],"stateMutability":"nonpayable"},{"type":"function","name":"verifyProof","inputs":[{"name":"leaf","type":"bytes32","internalType":"bytes32"},{"name":"siblings","type":"bytes32[]","internalType":"bytes32[]"},{"name":"index","type":"uint256","internalType":"uint256"},{"name":"root","type":"bytes32","internalType":"bytes32"}],"outputs":[{"name":"","type":"bool","internalType":"bool"}],"stateMutability":"pure"},{"type":"event","name":"RootAnchored","inputs":[{"name":"root","type":"bytes32","indexed":true,"internalType":"bytes32"},{"name":"by","type":"address","indexed":true,"internalType":"address"},{"name":"timestamp","type":"uint256","indexed":false,"internalType":"uint256"}],"anonymous":false}],"bytecode":{"object":"0x6080604052348015600e575f5ffd5b505f80546001600160a01b031916331790556103a58061002d5f395ff3fe608060405234801561000f575f5ffd5b5060043610610055575f3560e01c80632fbe94b3146100595780634f0b58011461008157806395d07edb146100a3578063ce993b8c146100b8578063f851a440146100da575b5f5ffd5b61006c61006736600461027f565b610104565b60405190151581526020015b60405180910390f35b61006c61008f36600461030a565b5f9081526001602052604090205460ff1690565b6100b66100b136600461030a565b6101e2565b005b61006c6100c636600461030a565b60016020525f908152604090205460ff1681565b5f546100ec906001600160a01b031681565b6040516001600160a01b039091168152602001610078565b5f85815b858110156101d55761011b600286610335565b6001036101735786868281811061013457610134610348565b9050602002013582604051602001610156929190918252602082015260400190565b6040516020818303038152906040528051906020012091506101c0565b8187878381811061018657610186610348565b905060200201356040516020016101a7929190918252602082015260400190565b6040516020818303038152906040528051906020012091505b6101cb60028661035c565b9450600101610108565b5090911495945050505050565b5f546001600160a01b0316331461022b5760405162461bcd60e51b81526020600482015260096024820152682727aa2fa0a226a4a760b91b604482015260640160405180910390fd5b5f81815260016020818152604092839020805460ff19169092179091559051428152339183917fe921eb4bf6ea0aadb86d175193eccf6ef65e0fa9f467f0be8bcc3aea6d98ffe2910160405180910390a350565b5f5f5f5f5f60808688031215610293575f5ffd5b85359450602086013567ffffffffffffffff8111156102b0575f5ffd5b8601601f810188136102c0575f5ffd5b803567ffffffffffffffff8111156102d6575f5ffd5b8860208260051b84010111156102ea575f5ffd5b959860209190910197509495604081013595606090910135945092505050565b5f6020828403121561031a575f5ffd5b5035919050565b634e487b7160e01b5f52601260045260245ffd5b5f8261034357610343610321565b500690565b634e487b7160e01b5f52603260045260245ffd5b5f8261036a5761036a610321565b50049056fea2646970667358221220feeed027f1447362172b42246fa2b674908495cbb79c3c50ec8a9ae494dbe22264736f6c634300081e0033","linkReferences":{}},"methodIdentifiers":{"admin()":"f851a440","anchoredRoots(bytes32)":"ce993b8c","isAnchored(bytes32)":"4f0b5801","registerRoot(bytes32)":"95d07edb","verifyProof(bytes32,bytes32[],uint256,bytes32)":"2fbe94b3"},"id":2}