{"abi":[{"type":"function","name":"fireIntent","inputs":[{"name":"amount","type":"uint256","internalType":"uint256"}],"outputs":[],"stateMutability":"nonpayable"},{"type":"function","name":"nextIntentId","inputs":[],"outputs":[{"name":"","type":"uint256","internalType":"uint256"}],"stateMutability":"view"},{"type":"event","name":"CrossIntent","inputs":[{"name":"user","type":"address","indexed":true,"internalType":"address"},{"name":"amount","type":"uint256","indexed":false,"internalType":"uint256"},{"name":"intentId","type":"uint256","indexed":false,"internalType":"uint256"},{"name":"timestamp","type":"uint256","indexed":false,"internalType":"uint256"}],"anonymous":false}],"bytecode":{"object":"0x6080604052348015600e575f5ffd5b506101268061001c5f395ff3fe6080604052348015600e575f5ffd5b50600436106030575f3560e01c80636825803b1460345780639b7b7b1e146045575b5f5ffd5b6043603f36600460b7565b605e565b005b604c5f5481565b60405190815260200160405180910390f35b5f54604080518381526020810192909252429082015233907fb898fdfdb3daf93bd1e15ed5b04bebe905f18c972f934a1f90cfe85ac7e167c49060600160405180910390a25f8054908060af8360cd565b919050555050565b5f6020828403121560c6575f5ffd5b5035919050565b5f6001820160e957634e487b7160e01b5f52601160045260245ffd5b506001019056fea264697066735822122061bb389a87b743ca17248e5eb8ad9d37b0c84215f3654aa093080d1c1141408264736f6c634300081e0033","linkReferences":{}},"methodIdentifiers":{"fireIntent(uint256)":"6825803b","nextIntentId()":"9b7b7b1e"},"id":1}